:020000040800F2
:10000000680600206D0100087501000877010008EE
:10001000790100087B0100087D0100080000000054
:100020000000000000000000000000007F01000848
:10003000810100080000000083010008850100081C
:100040008701000887010008870100088701000870
:100050008701000887010008870100088701000860
:100060008701000887010008870100088701000850
:100070008701000887010008870100088701000840
:100080008701000887010008870100088701000830
:100090008701000887010008870100088701000820
:1000A0008701000887010008870100088701000810
:1000B0008701000887010008870100088701000800
:1000C00087010008870100088701000887010008F0
:1000D00087010008870100088701000887010008E0
:1000E00087010008870100088701000800F002F876
:1000F00000F02CF80AA090E8000C82448344AAF196
:100100000107DA4501D100F021F8AFF2090EBAE893
:100110000F0013F0010F18BFFB1A43F0010318473B
:100120005C0400006C04000000230024002500266D
:10013000103A28BF78C1FBD8520728BF30C148BF4A
:100140000B6070471FB51FBD10B510BD00F031F832
:100150001146FFF7F7FF00F073F900F04FF803B412
:10016000FFF7F2FF03BC00F057F800000948804792
:1001700009480047FEE7FEE7FEE7FEE7FEE7FEE789
:10018000FEE7FEE7FEE7FEE704480549054A064BA1
:100190007047000069030008ED00000868000020B7
:1001A000680600206802002068020020704770473F
:1001B0007047754600F02CF8AE4605006946534678
:1001C00020F00700854618B020B5FFF7DDFFBDE839
:1001D00020404FF000064FF000074FF000084FF0AE
:1001E000000BAC46ACE8C009ACE8C009ACE8C009FB
:1001F000ACE8C00921F007018D46704710B50446F0
:10020000AFF300802046BDE81040FFF7A8BF000014
:10021000004870470000002001491820ABBEFEE7EF
:10022000260002007047000041F20C01C4F20101F7
:10023000086880F4005008607047000080B500F046
:1002400001F880BD84B000200390029041F20001CB
:10025000C4F20201086840F480300860FFE741F210
:100260000000C4F20200006800F40030029003981D
:1002700001300390FFE702990020019039B9FFE7B0
:100280000398B0F5A06018BF01200190FFE7019826
:10029000C0070028E3D1FFE741F20000C4F20200EA
:1002A00000688003002803D5FFE70120029002E0E8
:1002B00000200290FFE70298012851D1FFE742F2A7
:1002C0000001C4F20201086840F0100008600868EC
:1002D00020F007000860086840F00200086041F262
:1002E0000401C4F20201009108680860086808600F
:1002F000086840F480600860086820F47C1008609A
:10030000086840F4E810086041F20001C4F20201FC
:10031000086840F080700860FFE741F20000C4F216
:10032000020000688001002801D4FFE7F5E741F2F0
:100330000401C4F20201086820F0030008600868A4
:1003400040F002000860FFE741F20400C4F202003E
:10035000006800F00C00082801D0FFE7F4E700E097
:10036000FFE704B07047000080B541F20002C4F21C
:100370000202106840F00100106041F20401C4F272
:10038000020108680023CFF6FF03184008601068D8
:100390004FF6FF73CFF6F66318401060106820F434
:1003A00080201060086820F4FE00086041F2080117
:1003B000C4F202014FF41F000860FFF73FFF4EF642
:1003C0000851CEF200014FF00060086080BD0000CF
:1003D00081B00090FFE743F60000C4F2010000681E
:1003E0008006002801D4FFE7F5E743F60400C4F2D5
:1003F000010000680099087001B0704781B000905A
:10040000FFE743F60000C4F2010000680006002880
:1004100001D4FFE7F5E70098007843F60401C4F241
:1004200001010860FFE743F60000C4F20100006824
:100430004006002801D4FFE7F5E701B0704700004F
:1004400080B582B00020019000F00EF8FFF7ECFEBE
:10045000FFE740F26000C2F200000090FFF7B8FF33
:100460000098FFF7CBFFF4E741F20001C4F202016C
:10047000086840F001000860FFE741F20000C4F2A4
:10048000020000688007002801D4FFE7F5E741F289
:100490000401C4F20201086840F480300860086872
:1004A00040F4E0100860086840F48060086041F2A1
:1004B0000001C4F20201086840F080700860FFE7A4
:1004C00041F20000C4F202000068002008B1FFE71A
:1004D000F6E741F21801C4F20201086840F010008A
:1004E000086041F20402C4F20102106820F47000B6
:1004F0001060106840F44010106041F21C02C4F219
:100500000202106840F001001060086840F004002A
:100510000860086840F48040086040F60401C4F2B6
:100520000101086840F6FF7290430860086840F4D3
:100530009660086043F60801C4F2010141F64C5090
:10054000086043F60C01C4F20101086820F48050F1
:10055000086043F61002C4F20102106820F4405013
:100560001060086840F004000860086840F0080067
:100570000860086840F40050086070478C05000867
:0C058000000000206806000028010008B0
:04000005080000ED02
:00000001FF
