:020000040800F2
:10000000600600206D0100087501000877010008F6
:10001000790100087B0100087D0100080000000054
:100020000000000000000000000000007F01000848
:10003000810100080000000083010008850100081C
:100040008701000887010008870100088701000870
:100050008701000887010008870100088701000860
:100060008701000887010008870100088701000850
:10007000870100088701000829020008870100089D
:100080008701000887010008870100088701000830
:100090008701000887010008870100088701000820
:1000A0008701000887010008870100088701000810
:1000B0008701000887010008870100088701000800
:1000C00087010008870100088701000887010008F0
:1000D00087010008790500088701000887010008EA
:1000E00087010008870100088701000800F002F876
:1000F00000F02CF80AA090E8000C82448344AAF196
:100100000107DA4501D100F021F8AFF2090EBAE893
:100110000F0013F0010F18BFFB1A43F0010318473B
:10012000A0070000B00700000023002400250026DF
:10013000103A28BF78C1FBD8520728BF30C148BF4A
:100140000B6070471FB51FBD10B510BD00F031F832
:100150001146FFF7F7FF00F0F7FA00F04FF803B48D
:10016000FFF7F2FF03BC00F057F800000948804792
:1001700009480047FEE7FEE7FEE7FEE7FEE7FEE789
:10018000FEE7FEE7FEE7FEE704480549054A064BA1
:10019000704700006D040008ED00000860000020BA
:1001A0006006002060020020600200207047704757
:1001B0007047754600F02CF8AE4605006946534678
:1001C00020F00700854618B020B5FFF7DDFFBDE839
:1001D00020404FF000064FF000074FF000084FF0AE
:1001E000000BAC46ACE8C009ACE8C009ACE8C009FB
:1001F000ACE8C00921F007018D46704710B50446F0
:10020000AFF300802046BDE81040FFF7A8BF000014
:10021000004870470000002001491820ABBEFEE7EF
:100220002600020070470000FFE70020C4F2020031
:100230000068800400280FD5FFE70421C4F2020102
:10024000086840F4005008604421C4F202010868C4
:1002500020F001000860E8E77047000041F2140157
:10026000C4F20201086840F0010008604421C4F2B1
:100270000201086820F001000860086840F01000E2
:100280000860086840F080000860086840F00200DC
:1002900008600868086008680860086840F4005052
:1002A0000860704741F21801C4F20201086840F08A
:1002B0001000086041F20402C4F20102106820F448
:1002C00070001060106840F440101060086840F43E
:1002D0008040086040F60001C4F20101086820F087
:1002E000F0000860086840F08000086040F60C01EB
:1002F000C4F20101086840F0020008607047000085
:1003000041F20C01C4F20101086880F40050086059
:100310007047000080B584B02520019000F078F986
:1003200001980A21039100F08BF90E20029000F051
:100330006FF90298039900F083F904B080BD0000C2
:1003400080B500F001F880BD84B0002003900290D9
:1003500041F20001C4F20201086840F480300860F4
:10036000FFE741F20000C4F20200006800F4003030
:100370000290039801300390FFE70299002001905A
:1003800039B9FFE70398B0F5A06018BF01200190CC
:10039000FFE70198C0070028E3D1FFE741F2000022
:1003A000C4F2020000688003002803D5FFE70120A3
:1003B000029002E000200290FFE70298012851D14C
:1003C000FFE742F20001C4F20201086840F01000A9
:1003D0000860086820F007000860086840F0020024
:1003E000086041F20401C4F202010091086808604B
:1003F00008680860086840F480600860086820F4B5
:100400007C100860086840F4E810086041F20001C0
:10041000C4F20201086840F080700860FFE741F212
:100420000000C4F2020000688001002801D4FFE748
:10043000F5E741F20401C4F20201086820F003006C
:100440000860086840F002000860FFE741F204001D
:10045000C4F20200006800F00C00082801D0FFE799
:10046000F4E700E0FFE704B07047000080B541F218
:100470000002C4F20202106840F00100106041F274
:100480000401C4F2020108680023CFF6FF031840FC
:10049000086010684FF6FF73CFF6F66318401060DF
:1004A000106820F480201060086820F4FE000860C6
:1004B00041F20801C4F202014FF41F000860FFF787
:1004C0003FFF4EF60851CEF200014FF00060086089
:1004D00080BD000041F21C01C4F20201086840F036
:1004E000010008607047000082B00190ADF8021072
:1004F000FFE74420C4F202000068C00708B1FFE72C
:10050000F7E701985021C4F202010860BDF802002B
:100510004821C4F202010860FFE743F60000C4F27C
:10052000010000680006002801D4FFE7F5E74C2130
:10053000C4F2020143F60400C4F20100086043F66D
:100540001401C4F20101086840F0800008604421F1
:10055000C4F20201086840F001000860FFE743F6BA
:100560000000C4F2010000684006002801D4FFE743
:10057000F5E702B07047000080B5FFF7C1FE43F613
:100580000001C4F20101086820F02000086080BD6D
:1005900041F21801C4F20201086840F4804008608A
:1005A000086840F00400086040F60401C4F201014C
:1005B000086820F47F600860086840F4966008606E
:1005C00043F60801C4F2010141F64C50086043F6BD
:1005D0000C01C4F20101086820F48050086043F661
:1005E0001002C4F20102106820F440501060086844
:1005F00040F020000860086840F0040008600868C7
:1006000040F008000860086840F400500860704737
:1006100081B08DF803009DF9030000280ED4FFE798
:100620009DF9031001F01F02012090404A094EF28B
:100630000011CEF2000141F82200FFE701B070473F
:1006400082B08DF8070000919DF9070000280AD4B8
:10065000FFE7009800019DF907104EF20042CEF22C
:10066000000288540BE0009800019DF8071001F08B
:100670000F014EF61452CEF200028854FFE702B08A
:100680007047000081B000902821C4F2000141F6BB
:100690001F400880009800EB800040002C21C4F22D
:1006A000000108802421C4F20001002008804FF0DE
:1006B0008041088840F001000880FFE71020C4F264
:1006C00000000088C00708B9FFE7F7E71021C4F26F
:1006D0000001088820F0010008804FF08041088860
:1006E00020F00100088001B07047000080B584B0A0
:1006F0000290029801900020ADF80200FFE70298F6
:10070000411C02910078A8B1FFE7BDF8020001305A
:10071000ADF80200BDF8020033280ADBFFE740F61F
:10072000AB00C0F60000FFF7E1FF4FF0FF30039091
:1007300006E0E4E70198BDF80210FFF7D5FEFFE7F9
:10074000039804B080BD000080B582B00020019005
:1007500000F016F8FFF7DEFDFFF7A4FDFFF77EFDC2
:10076000FFF7B8FEFFF714FFFFE74FF47A70FFF7CB
:1007700089FF40F2EC70C0F60000FFF7B7FFF4E726
:1007800041F20001C4F20201086840F00100086073
:10079000FFE741F20000C4F2020000688007002871
:1007A00001D4FFE7F5E741F20401C4F20201086851
:1007B00040F480300860086840F4E0100860086881
:1007C00040F48060086041F20001C4F20201086850
:1007D00040F080700860FFE741F20000C4F20200C0
:1007E0000068002008B1FFE7F6E77047474244473A
:1007F00048444647424447484446474244474844A1
:10080000464742444748444647424447484446478F
:100810004244474844464742444748444647424486
:10082000474844464742444748444647424447486D
:100830004446474244474844464742444748444662
:100840004742444748444647424447484446474253
:100850004447484446474244474844464742444741
:100860004844464742444748444647424447484430
:10087000464742444748444647424447484446471F
:100880004244474844464742444748444647424416
:1008900047484446474244474844464742444748FD
:1008A0004446474244474844460A00737472696E9E
:1008B0006720697320746F6F206C6F6E6721000072
:1008C000D008000800000020600600002801000891
:04000005080000ED02
:00000001FF
