:020000040800F2
:10000000600600206D0100087501000877010008F6
:10001000790100087B0100087D0100080000000054
:100020000000000000000000000000007F01000848
:10003000810100080000000083010008850100081C
:100040008701000887010008870100088701000870
:100050008701000887010008870100088701000860
:100060008701000887010008870100088701000850
:100070008701000887010008510200088701000875
:100080008701000887010008870100088701000830
:100090008701000887010008870100088701000820
:1000A0008701000887010008870100088701000810
:1000B0008701000887010008870100088701000800
:1000C00087010008870100088701000887010008F0
:1000D0008701000859060008870100088701000809
:1000E000CD020008870100088701000800F002F82F
:1000F00000F02CF80AA090E8000C82448344AAF196
:100100000107DA4501D100F021F8AFF2090EBAE893
:100110000F0013F0010F18BFFB1A43F0010318473B
:10012000FC0700000C080000002300240025002626
:10013000103A28BF78C1FBD8520728BF30C148BF4A
:100140000B6070471FB51FBD10B510BD00F031F832
:100150001146FFF7F7FF00F033FB00F04FF803B450
:10016000FFF7F2FF03BC00F057F800000948804792
:1001700009480047FEE7FEE7FEE7FEE7FEE7FEE789
:10018000FEE7FEE7FEE7FEE704480549054A064BA1
:10019000704700004D050008ED00000860000020D9
:1001A0006006002060020020600200207047704757
:1001B0007047754600F02CF8AE4605006946534678
:1001C00020F00700854618B020B5FFF7DDFFBDE839
:1001D00020404FF000064FF000074FF000084FF0AE
:1001E000000BAC46ACE8C009ACE8C009ACE8C009FB
:1001F000ACE8C00921F007018D46704710B50446F0
:10020000AFF300802046BDE81040FFF7A8BF000014
:10021000004870470000002001491820ABBEFEE7EF
:10022000260002007047000040F60041C4F20101C0
:10023000086820F470000860086840F44010086006
:1002400040F61041C4F20101202008607047000010
:10025000FFE70020C4F202000068800400280FD5E8
:10026000FFE70421C4F20201086840F4005008606E
:100270004421C4F20201086820F001000860E8E7A8
:100280007047000041F21401C4F20201086840F016
:10029000010008604421C4F20201086820F0010056
:1002A0000860086840F010000860086840F08000AE
:1002B0000860086840F00200086008680860086884
:1002C0000860086840F400500860704780B540F24C
:1002D0001440C4F201000068000400280FD5FFE7B5
:1002E00040F6F800C0F6000000F03CFA40F214417D
:1002F000C4F20101086840F400400860FFE780BDD7
:1003000041F21801C4F20201086840F004000860DC
:10031000086840F008000860086840F010000860B5
:10032000086840F00100086040F60401C4F20101D1
:10033000086820F00F000860086840F00B000860B3
:1003400041F20402C4F20102106820F4700010604F
:10035000106840F44010106040F60002C4F2010240
:10036000106820F0F0001060106840F0800010600D
:1003700040F60C02C4F20102106840F00200106066
:10038000086820F070400860086840F0804008600D
:100390001421C4F2010108680020086008680860A0
:1003A0007047000041F20C01C4F20101086880F4BA
:1003B000005008607047000080B584B0252001908F
:1003C0000A2100F0ADF9019800F092F90E20029098
:1003D0000B2100F0A5F9029800F08AF9282003907B
:1003E0000C2100F09DF9039800F082F940F20041E1
:1003F000C4F20101086840F40040086040F208417E
:10040000C4F20101086840F40040086040F20C4169
:10041000C4F20101086840F40040086004B080BDE7
:1004200080B500F001F880BD84B0002003900290F8
:1004300041F20001C4F20201086840F48030086013
:10044000FFE741F20000C4F20200006800F400304F
:100450000290039801300390FFE702990020019079
:1004600039B9FFE70398B0F5A06018BF01200190EB
:10047000FFE70198C0070028E3D1FFE741F2000041
:10048000C4F2020000688003002803D5FFE70120C2
:10049000029002E000200290FFE70298012851D16B
:1004A000FFE742F20001C4F20201086840F01000C8
:1004B0000860086820F007000860086840F0020043
:1004C000086041F20401C4F202010091086808606A
:1004D00008680860086840F480600860086820F4D4
:1004E0007C100860086840F4E810086041F20001E0
:1004F000C4F20201086840F080700860FFE741F232
:100500000000C4F2020000688001002801D4FFE767
:10051000F5E741F20401C4F20201086820F003008B
:100520000860086840F002000860FFE741F204003C
:10053000C4F20200006800F00C00082801D0FFE7B8
:10054000F4E700E0FFE704B07047000080B541F237
:100550000002C4F20202106840F00100106041F293
:100560000401C4F2020108680023CFF6FF0318401B
:10057000086010684FF6FF73CFF6F66318401060FE
:10058000106820F480201060086820F4FE000860E5
:1005900041F20801C4F202014FF41F000860FFF7A6
:1005A0003FFF4EF60851CEF200014FF000600860A8
:1005B00080BD000041F21C01C4F20201086840F055
:1005C000010008607047000082B00190ADF8021091
:1005D000FFE74420C4F202000068C00708B1FFE74B
:1005E000F7E701985021C4F202010860BDF802004B
:1005F0004821C4F202010860FFE743F60000C4F29C
:10060000010000680006002801D4FFE7F5E74C214F
:10061000C4F2020143F60400C4F20100086043F68C
:100620001401C4F20101086840F080000860442110
:10063000C4F20201086840F001000860FFE743F6D9
:100640000000C4F2010000684006002801D4FFE762
:10065000F5E702B07047000080B5FFF7A3FE43F650
:100660000001C4F20101086820F02000086080BD8C
:1006700041F21801C4F20201086840F480400860A9
:10068000086840F00400086040F60401C4F201016B
:10069000086820F47F600860086840F4966008608D
:1006A00043F60801C4F2010141F64C50086043F6DC
:1006B0000C01C4F20101086820F48050086043F680
:1006C0001002C4F20102106820F440501060086863
:1006D00040F020000860086840F0040008600868E6
:1006E00040F008000860086840F400500860704757
:1006F00081B08DF803009DF9030000280ED4FFE7B8
:100700009DF9031001F01F02012090404A094EF2AA
:100710000011CEF2000141F82200FFE701B070475E
:1007200082B08DF8070000919DF9070000280AD4D7
:10073000FFE7009800019DF907104EF20042CEF24B
:10074000000288540BE0009800019DF8071001F0AA
:100750000F014EF61452CEF200028854FFE702B0A9
:100760007047000080B584B002900298019000208C
:10077000ADF80200FFE70298411C02910078B0B189
:10078000FFE7BDF802000130ADF80200BDF802003D
:10079000B0F5806F0ADDFFE740F60810C0F60000F4
:1007A000FFF7E0FF4FF0FF30039006E0E3E701982A
:1007B000BDF80210FFF708FFFFE7039804B080BD03
:1007C00080B582B00020019000F014F8FFF7F4FD2E
:1007D000FFF796FDFFF756FDFFF7ECFEFFF748FF2A
:1007E000FFF722FD40F60110C0F60000FFF7BAFF48
:1007F000FFE7FEE781B041F20001C4F202010868A0
:1008000040F480300860FFE741F20000C4F20200CB
:1008100000688003002801D4FFE7F5E741F20401F6
:10082000C4F20201086800200860FFE741F20400FA
:10083000C4F20200006810F00C0F01D0FFE7F5E7EA
:1008400041F20001C4F20201086820F080700860E3
:10085000FFE741F20000C4F20200006880010028B6
:1008600001D5FFE7F5E741F20401C4F2020100916E
:10087000086820F400300860086840F480300860A0
:10088000086820F470100860086840F48010086060
:10089000086840F480600860086820F080600860A4
:1008A000086840F08060086041F20001C4F2020173
:1008B000086840F080700860FFE741F20000C4F271
:1008C00002000068002008B1FFE7F6E741F20401EA
:1008D000C4F20201086840F002000860FFE741F23C
:1008E0000400C4F20200006800F00C00082801D0E7
:1008F000FFE7F4E701B07047494E20455854490AD4
:100900000053544152542100737472696E67206918
:100910007320746F6F206C6F6E6721002C090008C4
:0C09200000000020600600002801000814
:04000005080000ED02
:00000001FF
