:020000040800F2
:10000000600600206D0100087501000877010008F6
:10001000790100087B0100087D0100080000000054
:100020000000000000000000000000007F01000848
:10003000810100080000000083010008850100081C
:100040008701000887010008870100088701000870
:100050008701000887010008870100088701000860
:100060008701000887010008870100088701000850
:10007000870100088701000829020008870100089D
:100080008701000887010008870100088701000830
:100090008701000887010008870100088701000820
:1000A0008701000887010008870100088701000810
:1000B0008701000887010008870100088701000800
:1000C00087010008870100088701000887010008F0
:1000D00087010008870100088701000887010008E0
:1000E00087010008870100088701000800F002F876
:1000F00000F02CF80AA090E8000C82448344AAF196
:100100000107DA4501D100F021F8AFF2090EBAE893
:100110000F0013F0010F18BFFB1A43F0010318473B
:100120008C0800009C080000002300240025002605
:10013000103A28BF78C1FBD8520728BF30C148BF4A
:100140000B6070471FB51FBD10B510BD00F031F832
:100150001146FFF7F7FF00F089FB00F04FF803B4FA
:10016000FFF7F2FF03BC00F057F800000948804792
:1001700009480047FEE7FEE7FEE7FEE7FEE7FEE789
:10018000FEE7FEE7FEE7FEE704480549054A064BA1
:100190007047000081050008ED00000860000020A5
:1001A0006006002060020020600200207047704757
:1001B0007047754600F02CF8AE4605006946534678
:1001C00020F00700854618B020B5FFF7DDFFBDE839
:1001D00020404FF000064FF000074FF000084FF0AE
:1001E000000BAC46ACE8C009ACE8C009ACE8C009FB
:1001F000ACE8C00921F007018D46704710B50446F0
:10020000AFF300802046BDE81040FFF7A8BF000014
:10021000004870470000002001491820ABBEFEE7EF
:1002200026000200704700000020C4F202000068AF
:10023000800400280FD5FFE70421C4F202010868FA
:1002400040F4005008604421C4F20201086820F024
:1002500001000860FFE7704782B00190ADF802101E
:10026000ADF80020BDF80200072816DCFFE7BDF856
:10027000020081000F2000FA01F201990868904302
:100280000860BDF80000BDF80210890000FA01F214
:10029000019908681043086019E0BDF802006FF08A
:1002A0001F0101EB80020F2000FA02F3019A50684F
:1002B00098435060BDF80000BDF8022001EB8201B8
:1002C00000FA01F20199486810434860FFE702B064
:1002D0007047000082B00190ADF80210BDF8021026
:1002E00001208840ADF80000BDF800200199C868E1
:1002F0005040C86002B0704783B0029001918DF801
:1003000003209DF8030030B1FFE7019A02990868C5
:100310001043086005E0019A02990868904308605C
:10032000FFE703B07047000041F20401C4F202018C
:10033000086820F00300086041F20001C4F20201E5
:10034000086820F080700860FFE741F20000C4F206
:10035000020000688001002801D5FFE7F5E741F2BF
:100360000001C4F20201086840F480300860FFE731
:1003700041F20000C4F2020000688003002801D4AA
:10038000FFE7F5E741F20401C4F20201086820F436
:1003900000300860086840F4803008600868072270
:1003A00062F39540086041F20001C4F2020108685E
:1003B00040F080700860FFE741F20000C4F20200E4
:1003C00000688001002801D4FFE7F5E741F204014D
:1003D000C4F202010868022262F301000860FFE72C
:1003E00041F20400C4F20200006800F00C0008288A
:1003F00001D0FFE7F4E741F20401C4F2020108680A
:100400000860086840F48060086008680860704709
:1004100081B0009041F21801C4F20201086840F076
:100420000400086040F60401C4F20101086820F0ED
:100430000F000860086840F00B00086041F20401FA
:10044000C4F20201086820F0E060009A10430860DE
:1004500001B0704780B500F001F880BD84B0002085
:100460000390029041F20001C4F20201086840F4D6
:1004700080300860FFE741F20000C4F2020000682B
:1004800000F400300290039801300390FFE70299D6
:100490000020019039B9FFE70398B0F5A06018BFBC
:1004A00001200190FFE70198C0070028E3D1FFE792
:1004B00041F20000C4F2020000688003002803D566
:1004C000FFE70120029002E000200290FFE702987F
:1004D000012851D1FFE742F20001C4F2020108688D
:1004E00040F010000860086820F007000860086805
:1004F00040F00200086041F20401C4F202010091E0
:100500000868086008680860086840F4806008604F
:10051000086820F47C100860086840F4E81008605F
:1005200041F20001C4F20201086840F080700860E6
:10053000FFE741F20000C4F20200006880010028D9
:1005400001D4FFE7F5E741F20401C4F202010868B3
:1005500020F003000860086840F002000860FFE730
:1005600041F20400C4F20200006800F00C00082808
:1005700001D0FFE7F4E700E0FFE704B070470000B8
:1005800080B541F20002C4F20202106840F001009E
:10059000106041F20401C4F2020108680023CFF6A2
:1005A000FF031840086010684FF6FF73CFF6F6633C
:1005B00018401060106820F480201060086820F453
:1005C000FE00086041F20801C4F202014FF41F006E
:1005D0000860FFF73FFF4EF60851CEF200014FF0E2
:1005E0000060086080BD000082B00190ADF802108C
:1005F000ADF80020BDF8020001990885BDF80000A3
:100600000199888502B0704782B001900198808975
:1006100000F00100ADF802000199888920F0010086
:1006200088810199888A40F001008882BDF8022003
:1006300001998889104388810199088840F0010058
:10064000088002B07047000081B0009000990888CF
:1006500020F0010008800099088A20F0010008823B
:100660000099888A40F00100888201B0704700003C
:1006700080B50E2000F030F840F60401C4F201010C
:10068000086820F47F600860086840F4966008609D
:1006900043F60801C4F2010140F27120088043F6DC
:1006A0000C01C4F20101088820F48050088043F650
:1006B0001002C4F20102108820F440501080088813
:1006C00040F004000880088840F00800088008888E
:1006D00040F40050088080BD81B08DF803009DF982
:1006E000030000280ED4FFE79DF9031001F01F025C
:1006F000012090404A094EF20011CEF2000141F86B
:100700002200FFE701B0704780B584B0ADF80E005D
:100710004FF080400190472140F2E732FFF764FF3D
:100720000198018841F004010180BDF80E10ADF878
:100730000C10FFF769FF0020ADF80A00FFE7BDF8D5
:100740000A00BDF80C10884217DAFFE7FFE7102017
:10075000C4F200000088C00708B9FFE7F7E71021DE
:10076000C4F20001088820F001000880FFE7BDF80E
:100770000A000130ADF80A00E1E74FF08040FFF7D2
:1007800063FF04B080BD000080B584B00290029881
:1007900001900020ADF80200FFE70298BDF80210BA
:1007A000405CA8B1FFE7BDF802000130ADF80200DF
:1007B00080B2B0F5806F0ADDFFE740F69510C0F615
:1007C0000000FFF7E1FF4FF0FF3003904BE0E4E75C
:1007D00043F61401C4F20101088840F0800008804B
:1007E000FFE74420C4F202000068C00708B1FFE739
:1007F000F7E702985021C4F202010860BDF8020038
:100800004821C4F2020108604C21C4F2020143F6FF
:100810000400C4F2010008604421C4F20201086827
:1008200040F092000860FFE743F60000C4F20100C8
:1008300000880006002801D4FFE7F5E74421C4F250
:100840000201086840F001000860FFE743F600007D
:10085000C4F2010000884006002801D4FFE7F5E754
:1008600000200390FFE7039804B080BD80B586B0F8
:1008700000200590FFF758FD4FF08060FFF7C8FD9E
:1008800041F21800C4F202000190042101220392F7
:10089000FFF732FD0198039A0821FFF72DFD01981B
:1008A000039A1021FFF728FD0198039A1146FFF7DC
:1008B00023FD0198039A4FF48041FFF71DFD039A31
:1008C00041F21400C4F202001146FFF715FD039A2D
:1008D00041F21C00C4F2020002901146FFF70CFD29
:1008E0000298039A0221FFF707FD41F20000C4F2CB
:1008F00001000D210322FFF7AFFC40F60000C4F217
:10090000010006210B22FFF7A7FCFFF7B1FE40F222
:100910000040C4F20000049041F61F4142F20F7201
:10092000FFF762FE049940F21842C4F200021088F8
:1009300040F06800108040F22042C4F200021088AB
:1009400040F00100108040F23442C4F200021088EE
:1009500041F6583318431080088840F001000880A1
:10096000FFE741F20000C4F201000D21FFF7B2FCE5
:100970004FF47A70FFF7C8FE40F68610C0F600000C
:10098000FFF702FFEDE768616861686168686121EF
:100990002121212100737472696E672069732074AC
:1009A0006F6F206C6F6E672100000000BC090008AB
:0C09B00000000020600600002801000884
:04000005080000ED02
:00000001FF
