:020000040800F2
:10000000600600206D0100087501000877010008F6
:10001000790100087B0100087D0100080000000054
:100020000000000000000000000000007F01000848
:10003000810100080000000083010008850100081C
:100040008701000887010008870100088701000870
:100050008701000887010008870100088701000860
:100060008701000887010008870100088701000850
:100070008701000887010008870100088701000840
:100080008701000887010008870100088701000830
:100090008701000887010008870100088701000820
:1000A0008701000887010008870100088701000810
:1000B0008701000887010008870100088701000800
:1000C00087010008870100088701000887010008F0
:1000D00087010008870100088701000887010008E0
:1000E00087010008870100088701000800F002F876
:1000F00000F02CF80AA090E8000C82448344AAF196
:100100000107DA4501D100F021F8AFF2090EBAE893
:100110000F0013F0010F18BFFB1A43F0010318473B
:1001200014050000240500000023002400250026FB
:10013000103A28BF78C1FBD8520728BF30C148BF4A
:100140000B6070471FB51FBD10B510BD00F031F832
:100150001146FFF7F7FF00F037FA00F04FF803B44D
:10016000FFF7F2FF03BC00F057F800000948804792
:1001700009480047FEE7FEE7FEE7FEE7FEE7FEE789
:10018000FEE7FEE7FEE7FEE704480549054A064BA1
:100190007047000061050008ED00000860000020C5
:1001A0006006002060020020600200207047704757
:1001B0007047754600F02CF8AE4605006946534678
:1001C00020F00700854618B020B5FFF7DDFFBDE839
:1001D00020404FF000064FF000074FF000084FF0AE
:1001E000000BAC46ACE8C009ACE8C009ACE8C009FB
:1001F000ACE8C00921F007018D46704710B50446F0
:10020000AFF300802046BDE81040FFF7A8BF000014
:10021000004870470000002001491820ABBEFEE7EF
:10022000260002007047000082B00190ADF8021075
:10023000ADF80020BDF80200072816DCFFE7BDF886
:10024000020081000F2000FA01F201990868904332
:100250000860BDF80000BDF80210890000FA01F244
:10026000019908681043086019E0BDF802006FF0BA
:100270001F0101EB80020F2000FA02F3019A50687F
:1002800098435060BDF80000BDF8022001EB8201E8
:1002900000FA01F20199486810434860FFE702B094
:1002A0007047000082B00190ADF80210BDF8021056
:1002B00001208840ADF80000BDF800200199C86811
:1002C0005040C86002B0704782B00190ADF8021093
:1002D0008DF801209DF8010050B1FFE7BDF8021034
:1002E000012000FA01F2019908691043086109E050
:1002F000BDF80210012000FA01F20199486910438B
:100300004861FFE702B0704783B0029001918DF819
:1003100003209DF8030030B1FFE7019A02990868B5
:100320001043086005E0019A02990868904308604C
:10033000FFE703B07047000041F20401C4F202017C
:10034000086820F00300086041F20001C4F20201D5
:10035000086820F080700860FFE741F20000C4F2F6
:10036000020000688001002801D5FFE7F5E741F2AF
:100370000001C4F20201086840F480300860FFE721
:1003800041F20000C4F2020000688003002801D49A
:10039000FFE7F5E741F20401C4F20201086820F426
:1003A00000300860086840F4803008600868072260
:1003B00062F39540086041F20001C4F2020108684E
:1003C00040F080700860FFE741F20000C4F20200D4
:1003D00000688001002801D4FFE7F5E741F204013D
:1003E000C4F202010868022262F30100086070474B
:1003F00081B0009041F21801C4F20201086840F097
:100400000400086040F60401C4F20101086820F00D
:100410000F000860086840F00B00086041F204011A
:10042000C4F20201086820F0E060009A10430860FE
:1004300001B0704780B500F001F880BD84B00020A5
:100440000390029041F20001C4F20201086840F4F6
:1004500080300860FFE741F20000C4F2020000684B
:1004600000F400300290039801300390FFE70299F6
:100470000020019039B9FFE70398B0F5A06018BFDC
:1004800001200190FFE70198C0070028E3D1FFE7B2
:1004900041F20000C4F2020000688003002803D586
:1004A000FFE70120029002E000200290FFE702989F
:1004B000012851D1FFE742F20001C4F202010868AD
:1004C00040F010000860086820F007000860086825
:1004D00040F00200086041F20401C4F20201009100
:1004E0000868086008680860086840F48060086070
:1004F000086820F47C100860086840F4E810086080
:1005000041F20001C4F20201086840F08070086006
:10051000FFE741F20000C4F20200006880010028F9
:1005200001D4FFE7F5E741F20401C4F202010868D3
:1005300020F003000860086840F002000860FFE750
:1005400041F20400C4F20200006800F00C00082828
:1005500001D0FFE7F4E700E0FFE704B070470000D8
:1005600080B541F20002C4F20202106840F00100BE
:10057000106041F20401C4F2020108680023CFF6C2
:10058000FF031840086010684FF6FF73CFF6F6635C
:1005900018401060106820F480201060086820F473
:1005A000FE00086041F20801C4F202014FF41F008E
:1005B0000860FFF73FFF4EF60851CEF200014FF002
:1005C0000060086080BD000080B586B00020059006
:1005D000FFF7B2FE4FF08060FFF70AFF41F218000C
:1005E000C4F202000190042101220492FFF78CFE64
:1005F0000198049A0821FFF787FE0198049A1021B8
:10060000FFF782FE41F20000C4F2010002900D21CA
:1006100003910322FFF708FE02980399049AFFF75B
:1006200053FEFFE741F20000C4F201000D21FFF785
:1006300039FEF7E7440600080000002060060000CD
:040640002801000885
:04000005080000ED02
:00000001FF
